:100000000C9477000C9410010C9410010C941001C6
:100010000C9410010C9410010C9410010C9410011C
:100020000C9410010C9410010C9410010C9410010C
:100030000C9410010C9410010C9410010C941001FC
:100040000C9410010C9410010C9410010C941001EC
:100050000C9410010C9410010C9410010C941001DC
:100060000C9410010C9410010C9410010C941001CC
:100070000C9410010C9410010C9410010C941001BC
:100080000C9410010C9410010C9410010C941001AC
:100090000C9410010C9410010C9410010C9410019C
:1000A0000C9410010C9410010C9410010C9410018C
:1000B0000C9410010C9410010C9410010C9410017C
:1000C0000C9410010C9410010C9410010C9410016C
:1000D0000C9410010C9410010C9410010C9410015C
:1000E0000C9410010C941001400040028000112477
:1000F0001FBECFEFCDBFDFE7DEBFE8EEF0E040E0B0
:1001000019C0B791A79137912791079107FD0EC0AC
:1001100097918791EF01F92FE82F0BBF07900D9270
:10012000A217B307D9F7FE011BBE04C01D92A21788
:10013000B307E1F7ED3EF40721F70E94A3000C940A
:06014000A100F894FFCFBE
:100146000E94D90081E080930A06C0E0D6E011E063
:100156000E940C018823E1F38889998980930040E5
:100166009093014083E00E94F800809100409091B6
:1001760001400E94F8008091004090910140892F33
:0E0186000E94F8008CEF0E94F8001A87E1CF6B
:1001940081E080934104E0E6F4E08389887F838BE7
:0E01A40083898460838B8389877F838B089592
:1001B2000E9400010E94CA0081E08093A0000E9478
:0801C200F0000E94E500089521
:1001CA00E0E2F8E081E493E08087918780E4868327
:0601DA0083E08783089515
:1001E000E0E0F6E081E08283808383E08087089509
:1001F000E0E2F8E0948195FFFDCF80932208089516
:0C02000061E081E690E00E940601089594
:0C020C00DC0128ED209334006C93089571
:0802180080910D06817008952C
:040220000C9400003A
:02000004008278
:090000000000000000C000000037
:02000004008377
:040000005CC5C55CBA
:00000001FF
